{
  "contractName": "Election",
  "abi": [
    {
      "inputs": [],
      "payable": false,
      "stateMutability": "nonpayable",
      "type": "constructor"
    },
    {
      "anonymous": false,
      "inputs": [
        {
          "indexed": true,
          "internalType": "uint256",
          "name": "_candidateId",
          "type": "uint256"
        }
      ],
      "name": "votedEvent",
      "type": "event"
    },
    {
      "constant": true,
      "inputs": [
        {
          "internalType": "uint256",
          "name": "",
          "type": "uint256"
        }
      ],
      "name": "candidates",
      "outputs": [
        {
          "internalType": "uint256",
          "name": "id",
          "type": "uint256"
        },
        {
          "internalType": "string",
          "name": "name",
          "type": "string"
        },
        {
          "internalType": "uint256",
          "name": "voteCount",
          "type": "uint256"
        }
      ],
      "payable": false,
      "stateMutability": "view",
      "type": "function"
    },
    {
      "constant": true,
      "inputs": [],
      "name": "candidatesCount",
      "outputs": [
        {
          "internalType": "uint256",
          "name": "",
          "type": "uint256"
        }
      ],
      "payable": false,
      "stateMutability": "view",
      "type": "function"
    },
    {
      "constant": true,
      "inputs": [
        {
          "internalType": "address",
          "name": "",
          "type": "address"
        }
      ],
      "name": "voters",
      "outputs": [
        {
          "internalType": "bool",
          "name": "",
          "type": "bool"
        }
      ],
      "payable": false,
      "stateMutability": "view",
      "type": "function"
    },
    {
      "constant": false,
      "inputs": [
        {
          "internalType": "uint256",
          "name": "_candidateId",
          "type": "uint256"
        }
      ],
      "name": "vote",
      "outputs": [],
      "payable": false,
      "stateMutability": "nonpayable",
      "type": "function"
    }
  ],
  "bytecode": "0x608060405234801561001057600080fd5b506100556040518060400160405280600581526020017f53746576650000000000000000000000000000000000000000000000000000008152506100e260201b60201c565b6100996040518060400160405280600481526020017f4a6f686e000000000000000000000000000000000000000000000000000000008152506100e260201b60201c565b6100dd6040518060400160405280600a81526020017f48656973656e62657267000000000000000000000000000000000000000000008152506100e260201b60201c565b610202565b600260008154809291906001019190505550604051806060016040528060025481526020018281526020016000815250600080600254815260200190815260200160002060008201518160000155602082015181600101908051906020019061014c92919061015d565b506040820151816002015590505050565b828054600181600116156101000203166002900490600052602060002090601f016020900481019282601f1061019e57805160ff19168380011785556101cc565b828001600101855582156101cc579182015b828111156101cb5782518255916020019190600101906101b0565b5b5090506101d991906101dd565b5090565b6101ff91905b808211156101fb5760008160009055506001016101e3565b5090565b90565b6103e9806102116000396000f3fe608060405234801561001057600080fd5b506004361061004c5760003560e01c80630121b93f146100515780632d35a8a21461007f5780633477ee2e1461009d578063a3ec138d14610152575b600080fd5b61007d6004803603602081101561006757600080fd5b81019080803590602001909291905050506101ae565b005b6100876102cc565b6040518082815260200191505060405180910390f35b6100c9600480360360208110156100b357600080fd5b81019080803590602001909291905050506102d2565b6040518084815260200180602001838152602001828103825284818151815260200191508051906020019080838360005b838110156101155780820151818401526020810190506100fa565b50505050905090810190601f1680156101425780820380516001836020036101000a031916815260200191505b5094505050505060405180910390f35b6101946004803603602081101561016857600080fd5b81019080803573ffffffffffffffffffffffffffffffffffffffff169060200190929190505050610394565b604051808215151515815260200191505060405180910390f35b600160003373ffffffffffffffffffffffffffffffffffffffff1673ffffffffffffffffffffffffffffffffffffffff16815260200190815260200160002060009054906101000a900460ff161561020557600080fd5b60008111801561021757506002548111155b61022057600080fd5b60018060003373ffffffffffffffffffffffffffffffffffffffff1673ffffffffffffffffffffffffffffffffffffffff16815260200190815260200160002060006101000a81548160ff02191690831515021790555060008082815260200190815260200160002060020160008154809291906001019190505550807ffff3c900d938d21d0990d786e819f29b8d05c1ef587b462b939609625b684b1660405160405180910390a250565b60025481565b6000602052806000526040600020600091509050806000015490806001018054600181600116156101000203166002900480601f0160208091040260200160405190810160405280929190818152602001828054600181600116156101000203166002900480156103845780601f1061035957610100808354040283529160200191610384565b820191906000526020600020905b81548152906001019060200180831161036757829003601f168201915b5050505050908060020154905083565b60016020528060005260406000206000915054906101000a900460ff168156fea265627a7a7231582073e53fabcc69cd2f266a70458541e4a8abbbbbca538d792f70a5e522b0ef734264736f6c63430005100032",
  "source": "// SPDX-License-Identifier: MIT\npragma solidity >= 0.4.2 < 0.9.0;\n\ncontract Election{\n    // struct representing a candidate\n    struct Candidate {\n        uint id;        // id of the candidate\n        string name;    // name of the candidate\n        uint voteCount; // no. of votes for the candidate\n    }\n\n    // hashmap to store the candidates' data\n    // key - unsigned int, value - Candidate struct\n    mapping(uint => Candidate) public candidates;\n\n    // boolean mapping to keep track of voters that have already voted\n    mapping(address => bool) public voters;\n   \n    // number of candidates\n    uint public candidatesCount;\n\n    // constructor for the contract\n    constructor() public {\n        addCandidate(\"Steve\");\n        addCandidate(\"John\");\n        addCandidate(\"Heisenberg\");\n    }\n    \n    // event indicating completion of voting\n    event votedEvent (\n        uint indexed _candidateId\n    );\n\n    // function to add candidates\n    function addCandidate(string memory _name) private {\n        candidatesCount++;\n        candidates[candidatesCount] = Candidate(candidatesCount, _name, 0); // create instance of Candidate struct using given data\n    }\n\n    // function to implement voting\n    function vote(uint _candidateId) public {\n\n        // ensure that the voter hasn't already voted\n        require(!voters[msg.sender]);\n\n        // check if the candidate is valid\n        require(_candidateId > 0 && _candidateId <= candidatesCount);\n\n        // update the state for the voter who just voted\n        voters[msg.sender] = true;\n\n        // increment the vote count for the candidate\n        candidates[_candidateId].voteCount++;\n\n        // trigger voted event\n        emit votedEvent(_candidateId);\n\n    }\n}",
  "sourcePath": "/home/aryaman/Projects/Truffle/Election-dapp/contracts/Election.sol",
  "compiler": {
    "name": "solc",
    "version": "0.5.16+commit.9c3226ce.Emscripten.clang"
  },
  "schemaVersion": "3.4.1",
  "updatedAt": "2021-06-07T12:28:48.202Z",
  "networkType": "ethereum",
  "devdoc": {
    "methods": {}
  },
  "userdoc": {
    "methods": {}
  }
}