{
  "contractName": "Election",
  "abi": [
    {
      "inputs": [],
      "payable": false,
      "stateMutability": "nonpayable",
      "type": "constructor"
    },
    {
      "constant": true,
      "inputs": [
        {
          "internalType": "uint256",
          "name": "",
          "type": "uint256"
        }
      ],
      "name": "candidates",
      "outputs": [
        {
          "internalType": "uint256",
          "name": "id",
          "type": "uint256"
        },
        {
          "internalType": "string",
          "name": "name",
          "type": "string"
        },
        {
          "internalType": "uint256",
          "name": "voteCount",
          "type": "uint256"
        }
      ],
      "payable": false,
      "stateMutability": "view",
      "type": "function"
    },
    {
      "constant": true,
      "inputs": [],
      "name": "candidatesCount",
      "outputs": [
        {
          "internalType": "uint256",
          "name": "",
          "type": "uint256"
        }
      ],
      "payable": false,
      "stateMutability": "view",
      "type": "function"
    }
  ],
  "bytecode": "0x608060405234801561001057600080fd5b506100556040518060400160405280600581526020017f53746576650000000000000000000000000000000000000000000000000000008152506100e260201b60201c565b6100996040518060400160405280600481526020017f4a6f686e000000000000000000000000000000000000000000000000000000008152506100e260201b60201c565b6100dd6040518060400160405280600a81526020017f48656973656e62657267000000000000000000000000000000000000000000008152506100e260201b60201c565b610202565b600160008154809291906001019190505550604051806060016040528060015481526020018281526020016000815250600080600154815260200190815260200160002060008201518160000155602082015181600101908051906020019061014c92919061015d565b506040820151816002015590505050565b828054600181600116156101000203166002900490600052602060002090601f016020900481019282601f1061019e57805160ff19168380011785556101cc565b828001600101855582156101cc579182015b828111156101cb5782518255916020019190600101906101b0565b5b5090506101d991906101dd565b5090565b6101ff91905b808211156101fb5760008160009055506001016101e3565b5090565b90565b61020b806102116000396000f3fe608060405234801561001057600080fd5b50600436106100365760003560e01c80632d35a8a21461003b5780633477ee2e14610059575b600080fd5b61004361010e565b6040518082815260200191505060405180910390f35b6100856004803603602081101561006f57600080fd5b8101908080359060200190929190505050610114565b6040518084815260200180602001838152602001828103825284818151815260200191508051906020019080838360005b838110156100d15780820151818401526020810190506100b6565b50505050905090810190601f1680156100fe5780820380516001836020036101000a031916815260200191505b5094505050505060405180910390f35b60015481565b6000602052806000526040600020600091509050806000015490806001018054600181600116156101000203166002900480601f0160208091040260200160405190810160405280929190818152602001828054600181600116156101000203166002900480156101c65780601f1061019b576101008083540402835291602001916101c6565b820191906000526020600020905b8154815290600101906020018083116101a957829003601f168201915b505050505090806002015490508356fea265627a7a723158208d4ecb5e2d54cc25290c9b7ef1aba189b43d1de440c6770450cc78c0a633a3c264736f6c63430005100032",
  "source": "// SPDX-License-Identifier: MIT\npragma solidity >= 0.4.2 < 0.9.0;\n\ncontract Election{\n    // struct representing a candidate\n    struct Candidate {\n        uint id;        // id of the candidate\n        string name;    // name of the candidate\n        uint voteCount; // no. of votes for the candidate\n    }\n\n    // hashmap to store the candidates' data\n    // key - unsigned int, value - Candidate struct\n    mapping(uint => Candidate) public candidates;\n\n    // number of candidates\n    uint public candidatesCount;\n\n    // constructor for the contract\n    constructor() public {\n        addCandidate(\"Steve\");\n        addCandidate(\"John\");\n        addCandidate(\"Heisenberg\");\n    }\n    \n    // function to add candidates\n    function addCandidate(string memory _name) private {\n        candidatesCount++;\n        candidates[candidatesCount] = Candidate(candidatesCount, _name, 0); // create instance of Candidate struct using given data\n    }\n\n}",
  "sourcePath": "/home/aryaman/Projects/Truffle/Election-dapp/contracts/Election.sol",
  "compiler": {
    "name": "solc",
    "version": "0.5.16+commit.9c3226ce.Emscripten.clang"
  },
  "schemaVersion": "3.4.1",
  "updatedAt": "2021-05-27T14:26:55.748Z",
  "networkType": "ethereum",
  "devdoc": {
    "methods": {}
  },
  "userdoc": {
    "methods": {}
  }
}